:020000040000FA
:04000000B0EF24F049
:10100000003738392F3435362A3132332D23303DED
:101010002B202020202020202020202020202020C5
:101020002020202020004469766973696F6E206259
:1010300079207A65726F20697320004E6F74206189
:101040006C6C6F776564200025302E326600696E07
:1010500066006E616E00256C6400256C7500256964
:0510600000256C0000FA
:10106600000E656E3DC066F03EC067F03FC068F09A
:1010760040C069F069BE44EF08F042EF08F058EF4F
:1010860008F0010E656E66C001F067C002F068C028
:1010960003F069C004F06BEC25F001C066F002C0F5
:1010A60067F003C068F004C069F0000E6B6E000EB6
:1010B6006A6E90C059F091C05AF06550D8B466EF88
:1010C60008F068EF08F07CEF08F06550D8A46EEFE2
:1010D60008F070EF08F076EF08F0000E4B6E2B0E5E
:1010E6004A6E7AEF08F0000E4B6E2D0E4A6E4AC01D
:1010F60065F066C001F067C002F068C003F069C021
:1011060004F059EC1EF001040210D8A48DEF08F08B
:101116008FEF08F0BCEF08F06550D8B495EF08F0F3
:1011260097EF08F0A0EF08F065C000F15906D8A0C7
:101136005A06000E6B6E010E6A6E000E6A24016E70
:10114600010E6B20026E4E0E036E4EEC25F0FD0E68
:101156005926FF0E5A223CC00FF0000E106E010EEB
:10116600116E59C012F05AC013F004EC23F048EF88
:101176000DF066C001F067C002F068C003F069C0F8
:1011860004F059EC1EF001500210D8A4CDEF08F07F
:10119600CFEF08F0ECEF08F06550D8B4D5EF08F0C3
:1011A600D7EF08F0E0EF08F065C000F15906D8A0C7
:1011B6005A06000E6B6E010E6A6E000E6A24016EF0
:1011C600010E6B20026E520E036E4EEC25F0AAEF56
:1011D60008F0000E6C6E000E6D6E800E6E6E3F0E89
:1011E6006F6E000E546E000E536E66C001F067C03F
:1011F60002F068C003F069C004F0000E056E000E30
:10120600066E000E076E000E086E8EEC20F0D8B04B
:101216000FEF09F011EF09F0ECEF09F01DEF09F0FF
:1012260055C06CF056C06DF057C06EF058C06FF0E8
:10123600534A542A6CC001F06DC002F06EC003F030
:101246006FC004F0000E056E000E066E200E076ECF
:10125600410E086EA9EC0FF001C055F002C056F021
:1012660003C057F004C058F05550665C016E5650E6
:101276006758026E57506858036E58506958046E86
:10128600EEEC23F004BE53EF09F0045003100210F5
:1012960009E1020E015CD8A053EF09F055EF09F001
:1012A60013EF09F055C01AF056C01BF057C01CF0DA
:1012B60058C01DF066C01EF067C01FF068C020F061
:1012C60069C021F0D7EC1DF0D8A06CEF09F06EEFE5
:1012D60009F013EF09F06C50665C016E6D506758AB
:1012E600026E6E506858036E6F506958046EEEECCD
:1012F60023F004BE8CEF09F004500310021007E13E
:10130600020E015CD8B08AEF09F08CEF09F0D3EF3A
:1013160009F06CC066F06DC067F06EC068F06FC013
:1013260069F0ECEF09F06CC00FF06DC010F06EC004
:1013360011F06FC012F0000E136E000E146E200E28
:10134600156E410E166EB9EC15F00FC06CF010C09C
:101356006DF011C06EF012C06FF05306D8A054069F
:101366006C50665C016E6D506758026E6E50685820
:10137600036E6F506958046EEEEC23F004BED1EF95
:1013860009F004500310021007E1020E015CD8B008
:10139600CFEF09F0D1EF09F0D3EF09F08CEF09F0A8
:1013A60066C01AF067C01BF068C01CF069C01DF06B
:1013B6006CC01EF06DC01FF06EC020F06FC021F033
:1013C600D7EC1DF0D8A0EAEF09F0ECEF09F096EFA4
:1013D60009F041C04DF04DC04EF0000193BFF6EF4D
:1013E60009F0F8EF09F0FEEF09F092C046F093C05D
:1013F60047F002EF0AF0000E476E060E466E46C034
:1014060051F047C052F0514A522A660E4E18D8A4DF
:101416000FEF0AF011EF0AF031EF0AF054BE18EFA1
:101426000AF016EF0AF024EF0AF0000E6C6E000EBA
:101436006D6E800E6E6E3F0E6F6E000E546E000E59
:10144600536E670E4D18D8B42BEF0AF02DEF0AF045
:1014560031EF0AF05350512654505222000E646E5A
:10146600000E636E66C05BF067C05CF068C05DF03E
:1014760069C05EF06CC055F06DC056F06EC057F096
:101486006FC058F0C1EF0AF05BC00FF05CC010F0FF
:101496005DC011F05EC012F06CC013F06DC014F0A8
:1014A6006EC015F06FC016F0B9EC15F00FC028F03D
:1014B60010C029F011C02AF012C02BF086EC17F0EC
:1014C60028C05FF029C060F02AC061F02BC062F02E
:1014D6005FC001F060C002F061C003F062C004F0BA
:1014E60054EC1DF001C04FF002C050F05BC01AF082
:1014F6005CC01BF05DC01CF05EC01DF05FC005F057
:1015060060C006F061C007F062C008F06CC001F070
:101516006DC002F06EC003F06FC004F0A9EC0FF0CE
:1015260001C01EF002C01FF003C020F004C021F06D
:101536006AEC24F01AC05BF01BC05CF01CC05DF0C6
:101546001DC05EF06CC00FF06DC010F06EC011F0E3
:101556006FC012F0000E136E000E146E200E156E84
:10156600410E166EB9EC15F00FC06CF010C06DF0A0
:1015760011C06EF012C06FF0634A642A5150635C6A
:101586006450800A426E5250800A4258D8A0CEEF6C
:101596000AF0D0EF0AF047EF0AF06CC001F06DC018
:1015A60002F06EC003F06FC004F0000E056E000E70
:1015B600066EA00E076E400E086EA9EC0FF001C075
:1015C6005FF002C060F003C061F004C062F05BC06F
:1015D6001AF05CC01BF05DC01CF05EC01DF05FC061
:1015E6001EF060C01FF061C020F062C021F0D7EC91
:1015F6001DF0D8B001EF0BF003EF0BF00DEF0BF081
:10160600000E5F6E000E606E000E616E000E626E62
:1016160035EF0BF05BC001F05CC002F05DC003F07B
:101626005EC004F05FC005F060C006F061C007F060
:1016360062C008F08EEC20F0D8A024EF0BF026EF65
:101646000BF035EF0BF04FB02BEF0BF02DEF0BF04F
:1016560035EF0BF0000E5F6E000E606E000E616ED1
:10166600000E626E66C001F067C002F068C003F04B
:1016760069C004F05FC005F060C006F061C007F005
:1016860062C008F049EC0DF001C05BF002C05CF0EE
:1016960003C05DF004C05EF05BC01AF05CC01BF0D6
:1016A6005DC01CF05EC01DF0000E056E000E066EDD
:1016B600200E076E410E086E55C001F056C002F0AE
:1016C60057C003F058C004F0A9EC0FF001C01EF09B
:1016D60002C01FF003C020F004C021F0D7EC1DF0BB
:1016E600D8A078EF0BF07AEF0BF0A1EF0BF0534A8E
:1016F600542A55C001F056C002F057C003F058C036
:1017060004F0000E056E000E066E200E076E410EEA
:10171600086EA9EC0FF001C055F002C056F003C0E8
:1017260057F004C058F0660E4E18D8A49DEF0BF083
:101736009FEF0BF0A1EF0BF0514A522A55C06CF007
:1017460056C06DF057C06EF058C06FF053C044F0ED
:1017560054C045F0000E4C6E000E496E000E486EE9
:10176600000E646E000E636E9BEF0CF05BC00FF014
:101776005CC010F05DC011F05EC012F06CC013F0DA
:101786006DC014F06EC015F06FC016F0B9EC15F010
:101796000FC028F010C029F011C02AF012C02BF09B
:1017A60086EC17F028C05FF029C060F02AC061F00F
:1017B6002BC062F05FC001F060C002F061C003F0B0
:1017C60062C004F054EC1DF002BEF5EF0BF00250BF
:1017D60007E10A0E015CD8B0F3EF0BF0F5EF0BF062
:1017E60005EF0CF05FC001F060C002F061C003F0CD
:1017F60062C004F054EC1DF001C04FF002C050F07E
:1018060009EF0CF0000E506E090E4F6E4C50D8A426
:101816000FEF0CF011EF0CF039EF0CF045BE18EF9E
:101826000CF016EF0CF039EF0CF0000E6A24D96EAE
:10183600010E6B20DA6E2E0EDF6E6A4A6B2A59068F
:10184600D8A05A06010E4C6E39EF0CF0000E6A2431
:10185600D96E010E6B20DA6E300EDF6E6A4A6B2A85
:101866005906D8A05A064806D8A049064850491035
:10187600D8A440EF0CF042EF0CF029EF0CF0000E6C
:101886006A24D96E010E6B20DA6E4F50300FDF6E70
:101896006A4A6B2A5906D8A05A065BC01AF05CC081
:1018A6001BF05DC01CF05EC01DF05FC005F060C09F
:1018B60006F061C007F062C008F06CC001F06DC0B0
:1018C60002F06EC003F06FC004F0A9EC0FF001C087
:1018D6001EF002C01FF003C020F004C021F06AEC25
:1018E60024F01AC05BF01BC05CF01CC05DF01DC08C
:1018F6005EF06CC00FF06DC010F06EC011F06FC0DE
:1019060012F0000E136E000E146E200E156E410EB0
:10191600166EB9EC15F00FC06CF010C06DF011C06A
:101926006EF012C06FF04406D8A04506634A642ADA
:101936005150635C6450800A426E5250800A42588D
:10194600D8B0A8EF0CF0AAEF0CF0B8EF0CF06BBE15
:10195600B6EF0CF06B5009E14B0E6A5CD8A0B6EFFF
:101966000CF0B8EF0CF0B9EF0BF0000E646E4F0EF2
:10197600636E000E6324D96E010E6420DA6EDF6A90
:10198600000E426E010E436E6A50425E6B50435A21
:1019960063504224016E64504320026E000E036EB3
:1019A600010E046E6AC005F06BC006F042EC24F02E
:1019B6006A50635C6A6E6B5064586B6E6550D8A44F
:1019C600E7EF0CF0EAEF0CF0010EEBEF0CF0000E77
:1019D600636E646A000194A3F3EF0CF0F5EF0CF06C
:1019E60023EF0DF005EF0DF06A06D8A06B06000E8A
:1019F6006A24D96E010E6B20DA6E300EDF6E590640
:101A0600D8A05A065950635C6450800A426E5A50F8
:101A1600800A4258D8B012EF0DF014EF0DF023EF04
:101A26000DF06A50635C6450800A426E6B50800A07
:101A36004258D8A021EF0DF023EF0DF0F7EF0CF090
:101A46006550D8B429EF0DF02BEF0DF036EF0DF001
:101A56006A06D8A06B06000E6A24D96E010E6B20AA
:101A6600DA6E65C0DFFF6350595E64505A5A3CC057
:101A76000FF0000E6A24106E010E6B20116E59C015
:101A860012F05AC013F004EC23F012000450800B3D
:101A96000D6E045004240F6E03AE54EF0DF056EF96
:101AA6000DF057EF0DF00F800F50D8B45DEF0DF02D
:101AB6005FEF0DF074EF0DF00F28D8A465EF0DF071
:101AC60067EF0DF06FEF0DF0000E016E000E026E67
:101AD600000E036E000E046E038E000E046E7CEF85
:101AE6000DF0000E016E000E026E000E036E000E6B
:101AF600046E0850800B0E6E0D500E18D8B486EF8B
:101B06000DF088EF0DF089EF0DF00D8C08500824CC
:101B16000E6E07AE91EF0DF093EF0DF094EF0DF012
:101B26000E800E50D8B49AEF0DF09CEF0DF0B1EF89
:101B36000DF00E28D8A4A2EF0DF0A4EF0DF0ACEF37
:101B46000DF0000E056E000E066E000E076E000EFE
:101B5600086E078E000E086EB9EF0DF0000E056ECA
:101B6600000E066E000E076E000E086E0F500E5C1D
:101B7600D8B0C0EF0DF0C2EF0DF0E9EF0DF00DACEF
:101B8600C7EF0DF0C9EF0DF0CBEF0DF0800E0D1A7B
:101B96000FC010F00EC00FF010C00EF001C010F014
:101BA60005C001F010C005F002C010F006C002F03A
:101BB60010C006F003C010F007C003F010C007F015
:101BC60004C010F008C004F010C008F0000E106E3B
:101BD6000F500EC009F00A6A095E000E0A5A0ABEC4
:101BE600FEEF0DF00A5009E11A0E095CD8A0FEEFCF
:101BF6000DF000EF0EF037EF0EF00150021003105B
:101C06000410D8A409EF0EF00CEF0EF0010E0DEF44
:101C16000EF0000E106E000E016E000E026E000E2B
:101C2600036E000E046E0EC00FF040EF0EF010A013
:101C36001FEF0EF021EF0EF027EF0EF0D8901030C8
:101C46000109106E29EF0EF0D890103201A02EEF88
:101C56000EF030EF0EF031EF0EF0108E0434043239
:101C66000332023201320F2A0E500F5CD8A03EEF2B
:101C76000EF040EF0EF01AEF0EF00DBC45EF0EF031
:101C860047EF0EF087EF0EF00F50D8A44DEF0EF091
:101C96004FEF0EF059EF0EF0000E016E000E026EC1
:101CA600000E036E000E046EA8EF0FF0055001261D
:101CB60006500222075003220850042204A066EFB1
:101CC6000EF068EF0EF014EF0FF010A06DEF0EF0AF
:101CD6006FEF0EF075EF0EF0D89010300109106E10
:101CE60077EF0EF0D890103201A07CEF0EF07EEF69
:101CF6000EF07FEF0EF0108E0434043203320232FF
:101D060001320F2A14EF0FF00550015C06500258FD
:101D1600075003580450800A096E0850800A095873
:101D2600D8B098EF0EF09AEF0EF0C5EF0EF0015016
:101D3600055C096E025006580A6E035007580B6E72
:101D4600045008580C6EFF0E0924016EFF0E0A207F
:101D5600026EFF0E0B20036EFF0E0C20046E800E2B
:101D66000D1A106C1050D8A4BBEF0EF0BDEF0EF09C
:101D7600CDEF0EF0010E0126000E022203220422F0
:101D8600CDEF0EF00550015E0650025A0750035A79
:101D96000850045A0150021003100410D8A4D6EFBC
:101DA6000EF0D8EF0EF00DEF0FF01050D8A4DEEFC6
:101DB6000EF0E0EF0EF00DEF0FF0000E016E000ECC
:101DC600026E000E036E000E046EA8EF0FF0D890A0
:101DD600013602360336043610AEF4EF0EF0F6EF97
:101DE6000EF0F7EF0EF0018010A0FCEF0EF0FEEF04
:101DF6000EF002EF0FF0D880103604EF0FF0D890F7
:101E060010360F50D8B40AEF0FF00CEF0FF00DEFAD
:101E16000FF00F0603AE12EF0FF014EF0FF0EAEF1C
:101E26000EF0000E0E6E10AE1BEF0FF01DEF0FF052
:101E360035EF0FF010C009F07F0E0916D8B426EF63
:101E46000FF028EF0FF02CEF0FF0010E0E6E35EFAE
:101E56000FF001A031EF0FF033EF0FF035EF0FF079
:101E660028EF0FF00E50D8B43BEF0FF03DEF0FF018
:101E760068EF0FF0010E0126000E02220322042253
:101E860004A048EF0FF04AEF0FF068EF0FF001C023
:101E960009F002C00AF003C00BF004C00CF00C34C9
:101EA6000C320B320A32093209C001F00AC002F0C4
:101EB6000BC003F00CC004F00F28D8B465EF0FF088
:101EC60067EF0FF068EF0FF00F2A0F28D8B46EEF08
:101ED6000FF070EF0FF078EF0FF00F50D8A476EFF9
:101EE6000FF078EF0FF08AEF0FF0000E016E000E84
:101EF600026E000E036E000E046E0F50D8A486EF1D
:101F06000FF088EF0FF08AEF0FF0000E0D6E0FA0A6
:101F16008FEF0FF091EF0FF094EF0FF0038E95EF28
:101F26000FF0039ED8900F30046E0DAE9DEF0FF0AC
:101F36009FEF0FF0A0EF0FF0048E01C001F002C07A
:101F460002F003C003F004C004F012000450800B3A
:101F56000D6E04500424136E03AEB4EF0FF0B6EF0B
:101F66000FF0B7EF0FF013801350D8B4BDEF0FF09A
:101F7600BFEF0FF0D2EF0FF01328D8A4C5EF0FF084
:101F8600C7EF0FF0CFEF0FF0000E016E000E026EDE
:101F9600000E036E000E046E038EDAEF0FF0000ED5
:101FA600016E000E026E000E036E000E046E0850E7
:101FB600800B0D1A085008240E6E07AEE5EF0FF0E1
:101FC600E7EF0FF0E8EF0FF00E800E50D8B4EEEF0B
:101FD6000FF0F0EF0FF003EF10F00E28D8A4F6EF95
:101FE6000FF0F8EF0FF000EF10F0000E056E000E88
:101FF600066E000E076E000E086E078E0BEF10F0D1
:10200600000E056E000E066E000E076E000E086EC0
:102016000E50D8B411EF10F013EF10F01BEF10F0C4
:102026001350D8A419EF10F01BEF10F025EF10F0A5
:10203600000E016E000E026E000E036E000E046EA0
:10204600BDEF11F007500102F3CF18F0F4CF19F0ED
:1020560018500F6E106A116A126A1950146E156ABA
:10206600166A176A06500202F3CF18F0F4CF19F079
:1020760018500F26000E1022112212221950142673
:10208600000E15221622172205500302F3CF18F070
:10209600F4CF19F018500F26000E1022112212222A
:1020A60019501426000E15221622172211C012F0FE
:1020B60010C011F00FC010F00F6A05500202F3CFE6
:1020C60018F0F4CF19F018500F2619501022000EF0
:1020D6001122000E122206500102F3CF18F0F4CF9F
:1020E60019F018500F2619501022000E1122000E5A
:1020F600122211C012F010C011F00FC010F00F6ABA
:1021060005500102F3CF18F0F4CF19F018500F263E
:1021160019501022000E1122000E12220750020240
:10212600F3CF18F0F4CF19F01850142619501522D1
:10213600000E1622000E172206500302F3CF18F0E7
:10214600F4CF19F01850142619501522000E162235
:10215600000E172207500302F3CF18F0F4CF19F040
:102166001850096E19500A6E0B6A0C6A0BC00CF0F7
:102176000AC00BF009C00AF0096A095014260A5071
:1021860015220B5016220C5017220FC009F010C052
:102196000AF011C00BF012C00CF0190ED8EF10F0B7
:1021A600D8900C320B320A320932E82ED3EF10F0F7
:1021B600095014260A5015220B5016220C501722CD
:1021C60011C012F010C011F00FC010F00F6A0E50BF
:1021D60013C009F00A6A0926000E0A22820E092493
:1021E600186EFF0E0A20196E0EEF11F0D8901436F5
:1021F60015361636173612AE03EF11F005EF11F04D
:1022060006EF11F01480D8900F36103611361236BC
:102216001806D8A0190616AE13EF11F015EF11F037
:10222600F9EF10F0000E0E6E12AE1CEF11F01EEF5D
:1022360011F042EF11F0FF0E0F14096EFF0E10148D
:102246000A6EFF0E11140B6E7F0E12140C6E0950DF
:102256000A100B100C10D8B433EF11F035EF11F053
:1022660039EF11F0010E0E6E42EF11F014A03EEFA1
:1022760011F040EF11F042EF11F035EF11F00E5072
:10228600D8B448EF11F04AEF11F06EEF11F0010EDD
:102296001426000E15221622172217A055EF11F04C
:1022A60057EF11F06EEF11F014C009F015C00AF0E7
:1022B60016C00BF017C00CF00C340C320B320A327D
:1022C600093209C014F00AC015F00BC016F00CC094
:1022D60017F0184A192A19BE79EF11F0195008E1BA
:1022E6001828D8A079EF11F07BEF11F085EF11F0E7
:1022F600000E146E000E156E800E166E7F0E176E93
:10230600B3EF11F019BE92EF11F0195006E118045F
:10231600D8B090EF11F092EF11F09EEF11F0000E91
:10232600146E000E156E000E166E000E176E000E61
:102336000D6EB3EF11F018C013F0FF0E1416FF0E5A
:1023460015167F0E1616000E171613A0ADEF11F018
:10235600AFEF11F0B0EF11F0168ED8901330176E64
:102366000D50171214C001F015C002F016C003F08C
:1023760017C004F012007150D96EDA6ADFCFF6FF8B
:10238600100EF76E0800F550250AD8A4CDEF11F00F
:10239600CFEF11F0AAEF13F07150D96EDA6ADF2A87
:1023A600000E0001916F000E906F90C094F092693C
:1023B6009369000E756EFBEF11F000019483715066
:1023C600D96EDA6ADF2AFBEF11F0010E756EFBEFAC
:1023D60011F07150D96EDA6ADFCFF6FF100EF76E84
:1023E6000800F550300AD8B4E0EF11F0E8EF11F02C
:1023F6007550D8B401EF12F003EF12F0ECEF11F0C4
:102406007150D96EDA6ADFCFF6FF100EF76E08004C
:10241600F5502E0AD8A412EF12F014EF12F022EFA4
:1024260012F07150D96EDA6ADF2A71C007F072C0F5
:1024360008F0E3EC20F007C092F008C093F071506A
:10244600D96EDA6ADF507B6E7BC0F6FF100EF76E30
:102456000800F5CF7AF03BEF12F07B2A4EEF12F030
:10246600690E7A6E4EEF12F0000E7A6E4EEF12F093
:102476007A50640AD8B433EF12F00D0AD8B433EFA9
:1024860012F0050AD8B430EF12F0190AD8B433EFB7
:1024960012F037EF12F07BC0F6FF100EF76E080051
:1024A600F550640AD8B45AEF12F05CEF12F091EFCF
:1024B60012F07BC0F6FF100EF76E0800F550690AA1
:1024C600D8A468EF12F06AEF12F0AFEF12F091EFB6
:1024D60012F07250D96EDA6ADF50DF2ADF2AD96E1F
:1024E600DA6ADECF76F0DDCF77F0000E77BEFF0E2C
:1024F600786E796E9CEF12F07250D96EDA6A040E1D
:10250600DF26DF5CD96EDA6ADECF76F0DECF77F0D3
:10251600DECF78F0DECF79F09CEF12F07A50690AC0
:10252600D8B46CEF12F0050AD8B47FEF12F09CEF26
:1025360012F07150D96EDA6A7B28DF6E70C017F020
:1025460076C018F077C019F078C01AF079C01BF081
:102556008FEC18F0BBEF13F07BC0F6FF100EF76E92
:102566000800F550750AD8A4BBEF12F0BDEF12F0C3
:1025760011EF13F0E5EF12F07250D96EDA6ADF5000
:10258600DF2ADF2AD96EDA6ADECF73F0DDCF74F088
:1025960073C076F074C077F0786A796AF0EF12F05B
:1025A6007250D96EDA6A040EDF26DF5CD96EDA6AFB
:1025B600DECF76F0DECF77F0DECF78F0DECF79F0C3
:1025C600F0EF12F07A50690AD8B4BFEF12F0050A9C
:1025D600D8B4D3EF12F0F0EF12F07150D96EDA6A78
:1025E6007B28DF6E05EF13F070C017F076C018F089
:1025F60077C019F078C01AF079C01BF013EC1BF005
:10260600BBEF13F07BC0F6FF100EF76E0800F55017
:10261600750AD8B4F7EF12F011EF13F07150D96EB6
:10262600DA6ADF507B6E7BC0F6FF100EF76E08008D
:10263600F5CF7AF02AEF13F07B2A39EF13F06C0E00
:102646007A6E39EF13F0000E7A6E39EF13F07A5086
:102656004C0AD8B41FEF13F02A0AD8B422EF13F0AD
:102666000A0AD8B41FEF13F026EF13F07BC0F6FF6B
:10267600100EF76E0800F550660AD8A445EF13F061
:1026860047EF13F0A4EF13F071EF13F07250D96E09
:10269600DA6ADFCF73F0040EDF267350D96EDA6A7A
:1026A600DECF76F0DECF77F0DECF78F0DECF79F0D2
:1026B6007CEF13F07250D96EDA6ADFCF73F0040E36
:1026C600DF267350D96EDA6ADECF76F0DECF77F08A
:1026D600DECF78F0DECF79F07CEF13F07A504C0A3B
:1026E600D8B45DEF13F0200AD8B449EF13F07CEFAD
:1026F60013F07150D96EDA6A7B28DF6E98EF13F00B
:1027060070C03CF076C03DF077C03EF078C03FF038
:1027160079C040F07BC0F6FF100EF76E0800F5CFCB
:1027260041F033EC08F0BBEF13F07BC0F6FF100E60
:10273600F76E0800F550660AD8B483EF13F0A4EFDD
:1027460013F07150D96EDA6ADF2ABBEF13F07150BD
:10275600D96EDA6ADFCFF6FF100EF76E0800F55075
:10276600016E026A70C003F031EC20F0A4EF13F0A2
:1027760012002DEC26F0C0EF13F0000E7F6ED10E86
:10278600096E7F0E0A6E4EEC1FF07F50D8B4CEEF66
:1027960013F0D0EF13F0C2EF13F02B0E7F18D8B45E
:1027A600D7EF13F0D9EF13F0FEEF13F02D0E7F18CD
:1027B600D8B4E0EF13F0E2EF13F0FEEF13F02A0EB9
:1027C6007F18D8B4E9EF13F0EBEF13F0FEEF13F038
:1027D6002F0E7F18D8B4F2EF13F0F4EF13F0FEEFDC
:1027E60013F00A0E00019719D8A4FCEF13F0FEEFC0
:1027F60013F02DEF14F07FC095F0D90E156E040E70
:10280600166E010E176E660E186E010E196EA3EC8B
:1028160025F0D90E146E040E156E00019729166E5A
:1028260095C017F030EC25F0D90E156E010E166E18
:10283600010E176E110E186E1850D8A4100E196ED0
:10284600A3EC25F0D90E0E6E020E0F6E94EC23F05B
:1028560060EF14F0230E7F18D8A434EF14F036EF8F
:1028660014F03EEF14F0D90E0E6E010E0F6E94ECBE
:1028760023F0B7EF15F0660E9725D96EDA6A010ECA
:10288600DA227FC0DFFF972BD90E146E010E156E6C
:1028960097C016F07FC017F030EC25F0030E00014C
:1028A600FB6F8A0EFA6F550EE82EFED7FA2FFCD76D
:1028B600FB2FFAD700D0C0EF13F0030E0001FB6F19
:1028C6008A0EFA6F550EE82EFED7FA2FFCD7FB2F8D
:1028D600FAD700D0000E7F6ED10E096E7F0E0A6EFB
:1028E6004EEC1FF07F50D8B47BEF14F07DEF14F060
:1028F6006FEF14F03D0E7F18D8B484EF14F086EF16
:1029060014F090EF14F00A0E00019619D8A48EEF79
:1029160014F090EF14F098EF14F0D90E0E6E010E2D
:102926000F6E94EC23F0B8EF14F0230E7F18D8A4A2
:102936009FEF14F0A1EF14F0A3EF14F036EF14F0AC
:102946005B0E9625D96EDA6A010EDA227FC0DFFFAA
:10295600962BD90E146E010E156E96C016F07FC01A
:1029660017F030EC25F060EF14F0030E0001FB6F5A
:102976008A0EFA6F550EE82EFED7FA2FFCD7FB2FDC
:10298600FAD700D0660E1B6E010E1C6EAF0E1D6EC2
:1029960001EC26F05B0E1B6E010E1C6EAB0E1D6E5F
:1029A60001EC26F0A3EF15F0AB51AF258C6FAC51BF
:1029B600B0218D6FAD51B1218E6FAE51B2218F6FA7
:1029C6008CC0F4F08DC0F5F08EC0F6F08FC0F7F035
:1029D600A00E0001F86F19EC24F0D90E156E010E49
:1029E600166E010E176EA00E186E196AA3EC25F06E
:1029F600C0EF13F0AB51AF5D8C6FAC51B0598D6F1A
:102A0600AD51B1598E6FAE51B2598F6FE3EF14F0DD
:102A1600AFC001F0B0C002F0B1C003F0B2C004F024
:102A2600ABC005F0ACC006F0ADC007F0AEC008F014
:102A36009BEC22F001C08CF002C08DF003C08EF03A
:102A460004C08FF0E3EF14F0AB51AC11AD11AE1131
:102A5600D8A430EF15F032EF15F056EF15F0D90E79
:102A66000E6E010E0F6E94EC23F0D90E156E010E4C
:102A7600166E010E176E260E186E1850D8A4100E7C
:102A8600196EA3EC25F0D90E156E020E166E010E08
:102A9600176E3B0E186E1850D8A4100E196EA3ECC4
:102AA60025F0C0EF13F0AFC001F0B0C002F0B1C026
:102AB60003F0B2C004F0010E7FEC19F001C00FF074
:102AC60002C010F003C011F004C012F0ABC001F058
:102AD600ACC002F0ADC003F0AEC004F0010E7FEC56
:102AE60019F001C013F002C014F003C015F004C0C1
:102AF60016F0B9EC15F00FC088F010C089F011C0BF
:102B06008AF012C08BF088C0F4F089C0F5F08AC054
:102B1600F6F08BC0F7F0500E0001F86F010EF96F5A
:102B2600C2EC23F0D90E156E010E166E010E176E4D
:102B3600500E186E010E196EA3EC25F0C0EF13F0BF
:102B4600000195512A0AD8B40BEF15F0010AD8B442
:102B5600D7EF14F0060AD8B4FDEF14F0020AD8B481
:102B660027EF15F0C0EF13F000EF00F01250800BC6
:102B76001F6E12501224266E11AEC4EF15F0C6EF6A
:102B860015F0C7EF15F026802650D8B4CDEF15F016
:102B9600CFEF15F0E4EF15F02628D8A4D5EF15F001
:102BA600D7EF15F0DFEF15F0000E0F6E000E106E6A
:102BB600000E116E000E126E118E000E126EECEFEC
:102BC60015F0000E0F6E000E106E000E116E000E48
:102BD600126E1650800B1F1A16501624276E15AE4D
:102BE600F7EF15F0F9EF15F0FAEF15F027802750FB
:102BF600D8B400EF16F002EF16F017EF16F02728FC
:102C0600D8A408EF16F00AEF16F012EF16F0000E31
:102C1600136E000E146E000E156E000E166E158ED7
:102C2600000E166E1FEF16F0000E136E000E146ED9
:102C3600000E156E000E166E135014101510161099
:102C4600D8A428EF16F02AEF16F042EF16F0000E81
:102C56000F6E000E106E000E116E000E126E800EBC
:102C660011127F0E12121F5012120FC00FF010C059
:102C760010F011C011F012C012F085EF17F02650B7
:102C8600D8A448EF16F04AEF16F054EF16F0000EEF
:102C96000F6E000E106E000E116E000E126E85EF96
:102CA60017F0275026C017F0186A175E000E185A3C
:102CB6007F0E1724206E000E1820216E0FC01BF009
:102CC60010C01CF011C01DF012C01EF0000E0F6ED9
:102CD600000E106E000E116E000E126E000E226EA9
:102CE600000E236E000E246E000E256E000E276E5B
:102CF600B5EF16F02750D8B483EF16F085EF16F02F
:102D06009CEF16F0D8901B361C361D361E36D89012
:102D16000F3610361136123625AE94EF16F096EFB2
:102D260016F097EF16F00F80D89022362336243609
:102D3600253613501B5C14501C5815501D58165040
:102D46001E58D8A0A9EF16F0ABEF16F0B4EF16F0A8
:102D5600258C13501B5E14501C5A15501D5A1650C4
:102D66001E5A272A190E2764BBEF16F0BDEF16F080
:102D76007DEF16F01B501C101D101E10D8B4C6EFA8
:102D860016F0C8EF16F0E0EF16F02280E0EF16F02E
:102D9600D8900F3610361136123625AED5EF16F00E
:102DA600D7EF16F0D8EF16F00F80D89022362336DC
:102DB600243625362006D8A0210611AEE5EF16F0FA
:102DC600E7EF16F0CBEF16F0000E276E25AEEEEF0E
:102DD60016F0F0EF16F014EF17F0FF0E2214176E30
:102DE600FF0E2314186EFF0E2414196E7F0E251481
:102DF6001A6E1750181019101A10D8B405EF17F0DC
:102E060007EF17F00BEF17F0010E276E14EF17F010
:102E16000FA010EF17F012EF17F014EF17F007EFEF
:102E260017F02750D8B41AEF17F01CEF17F040EF41
:102E360017F0010E0F26000E10221122122212A0E8
:102E460027EF17F029EF17F040EF17F00FC017F034
:102E560010C018F011C019F012C01AF01A341A3244
:102E660019321832173217C00FF018C010F019C0F7
:102E760011F01AC012F0204A212A21BE4BEF17F09A
:102E8600215008E12028D8A04BEF17F04DEF17F09E
:102E960058EF17F0000E216E2068000E0F6E000E20
:102EA600106E000E116E000E126E21BE65EF17F049
:102EB600215006E12004D8B063EF17F065EF17F054
:102EC60073EF17F0000E216E000E206E000E0F6ECF
:102ED600000E106E000E116E000E126E000E1F6EAA
:102EE60020C026F026A07AEF17F07CEF17F07FEFD0
:102EF60017F0118E80EF17F0119ED8902630126EC3
:102F060036EF16F0120080C038F081C039F082C06A
:102F16003AF083C03BF028C038F029C039F02AC007
:102F26003AF02BC03BF0810E2C6EFF0E2D6E38C092
:102F36002EF039C02FF03AC030F03BC031F0180EF9
:102F4600AAEF17F0D890313230322F322E32E82ED7
:102F5600A5EF17F02E502C24366E000E2D20376E5E
:102F660037BEBFEF17F0375009E1170E365CD8A011
:102F7600BFEF17F0C1EF17F0CBEF17F028C028F01E
:102F860029C029F02AC02AF02BC02BF08EEF18F0AA
:102F960037BED0EF17F0D2EF17F042EF18F036C079
:102FA6002CF0FF0E2D6EFF0E2E6E7F0E2F6E000E76
:102FB600306E2C66E1EF17F0E9EF17F0303430325F
:102FC6002F322E322D322C2EDCEF17F02DC032F0A0
:102FD6002EC033F02FC034F030C035F032503814E4
:102FE6002C6E335039142D6E34503A142E6E3550E3
:102FF6003B142F6E2C502D102E102F10D8A406EF38
:1030060018F008EF18F00AEF18F0C1EF17F038C003
:103016002CF039C02DF03AC02EF03BC02FF0200E18
:103026001AEF18F0D8902F322E322D322C32E82E8D
:1030360015EF18F02C502D102E102F10D8B426EFA7
:1030460018F028EF18F030EF18F0325038263350C9
:10305600392234503A2235503B22321C2C6E331C16
:103066002D6E341C2E6E351C2F6E2C5038162D509E
:1030760039162E503A162F503B1686EF18F038C0E8
:103086002CF039C02DF03AC02EF03BC02FF0200EA8
:1030960052EF18F0D8902F322E322D322C32E82EE5
:1030A6004DEF18F02C502D102E102F10D8A45EEFD7
:1030B60018F060EF18F06AEF18F0000E386E000E88
:1030C600396E000E3A6E000E3B6E86EF18F0D89001
:1030D60038342C6E39342D6E3A342E6E3B342F6EC6
:1030E6002C502D102E102F10D8B47CEF18F07EEF38
:1030F60018F086EF18F0000E386E000E396E800E4E
:103106003A6EBF0E3B6E38C028F039C029F03AC07F
:103116002AF03BC02BF012001BBE94EF18F097EF7D
:1031260018F0010E98EF18F0000E226E000193BF02
:103136009FEF18F0A1EF18F0A2EF18F0949393BF49
:10314600A9EF18F0A7EF18F0AFEF18F0000E1F6EFA
:10315600010E1E6EB3EF18F092C01EF093C01FF062
:1031660090C020F091C021F02250D8B4BDEF18F0E5
:10317600BFEF18F0D6EF18F02006D8A0210622508F
:10318600D8A4C8EF18F0CAEF18F0D0EF18F0000E68
:103196001D6E2B0E1C6ED4EF18F0000E1D6E2D0E3C
:1031A6001C6E1CC022F0000E246E4F0E236E000E05
:1031B60001014F6F23EF19F02306D8A02406000E55
:1031C6002324D96E010E2420DA6E18C001F019C02E
:1031D60002F01AC003F01BC004F00A0E056E000EC2
:1031E600066E000E076E000E086ED8EC1EF001C0CB
:1031F6000BF002C00CF0BEEC25F00B50300FDF6E6A
:103206001E06D8A01F062006D8A0210618C001F069
:1032160019C002F01AC003F01BC004F00A0E056EB6
:10322600000E066E000E076E000E086ECEEC1CF049
:1032360001C018F002C019F003C01AF004C01BF058
:1032460024BE2EEF19F0245008E12304D8A02EEF57
:1032560019F030EF19F05DEF19F0185019101A1027
:103266001B10D8A439EF19F03BEF19F0DFEF18F077
:103276001FBE48EF19F01F5006E11E04D8B046EFF6
:1032860019F048EF19F0DFEF18F021BE53EF19F0EF
:10329600215008E12004D8A053EF19F055EF19F09A
:1032A6005DEF19F0000194B35BEF19F05DEF19F0D3
:1032B600DFEF18F02250D8B463EF19F065EF19F07C
:1032C60070EF19F02306D8A02406000E2324D96E29
:1032D600010E2420DA6E22C0DFFF17C00FF0000EA9
:1032E6002324106E010E2420116E20C012F021C07E
:1032F60013F004EC23F01200096E0950D8B486EFDF
:1033060019F088EF19F0AAEF19F004BE8FEF19F043
:103316008DEF19F0AAEF19F001C005F002C006F012
:1033260003C007F004C008F0051E061E071E081E8F
:10333600052A000E06220722082205C00BF006C049
:103346000CF007C00DF008C00EF0B2EF19F001C086
:103356000BF002C00CF003C00DF004C00EF00150DB
:10336600021003100410D8A4BBEF19F0BDEF19F03A
:10337600C7EF19F0000E016E000E026E000E036E0E
:10338600000E046E58EF1AF0960E0A6ED1EF19F081
:103396000A2AD8900E320D320C320B32000E0B1464
:1033A600056E000E0C14066E000E0D14076EFE0E52
:1033B6000E14086E0550061007100810D8A4E6EF84
:1033C60019F0E8EF19F0CBEF19F0F6EF19F00A2A29
:1033D600010E0B26000E0C220D220E22D8900E3264
:1033E6000D320C320B32000E0B14056E000E0C144F
:1033F600066E000E0D14076EFF0E0E14086E0550B5
:10340600061007100810D8A40BEF1AF00DEF1AF0EB
:10341600EAEF19F015EF1AF00A06D8900B360C36BB
:103426000D360E360DBE1AEF1AF01CEF1AF024EF09
:103436001AF0020E0A6022EF1AF024EF1AF00FEFCC
:103446001AF00AB029EF1AF02BEF1AF02CEF1AF047
:103456000D9ED8900A320AC005F0066A076A086A05
:1034660005C008F0076A066A056A05500B12065081
:103476000C1207500D1208500E120950D8B446EF20
:103486001AF048EF1AF050EF1AF004BE4FEF1AF098
:103496004DEF1AF050EF1AF00E8E0BC001F00CC073
:1034A60002F00DC003F00EC004F01200000E176EFD
:1034B600000E186E000E196E000E1A6E000E166EB5
:1034C60067EF1AF00D4A0E2A0DC0D9FF0EC0DAFFBB
:1034D600200EDE18D8B472EF1AF074EF1AF065EF0A
:1034E6001AF00DC0D9FF0EC0DAFFDF50116EF70ECD
:1034F6001126040E116482EF1AF084EF1AF065EFBC
:103506001AF00DC0D9FF0EC0DAFF2D0EDE18D8A4B2
:103516008FEF1AF091EF1AF097EF1AF0010E166E70
:103526000D4A0E2AD7EF1AF00DC0D9FF0EC0DAFFEA
:103536002B0EDE18D8A4A2EF1AF0A4EF1AF0D7EFDC
:103546001AF093EF1AF00DC0D9FF0EC0DAFFDF5064
:10355600116ED00E1124126E136AFF0E1322146A16
:1035660013BE14061450156E17C001F018C002F0F1
:1035760019C003F01AC004F00A0E056E000E066E9E
:10358600000E076E000E086E9BEC22F01250015CD6
:10359600176E13500258186E14500358196E1550B2
:1035A60004581A6E93EF1AF00DC0D9FF0EC0DAFF59
:1035B600DF50116ED00E1126090E1164E5EF1AF0D8
:1035C600E7EF1AF0A6EF1AF01650D8A4EDEF1AF0AE
:1035D600EFEF1AF00AEF1BF017C011F018C012F047
:1035E60019C013F01AC014F0111E121E131E141E59
:1035F600112A000E12221322142211C00DF012C03D
:103606000EF013C00FF014C010F012EF1BF017C02D
:103616000DF018C00EF019C00FF01AC010F012000D
:10362600000193BF19EF1BF01BEF1BF01CEF1BF003
:10363600949393BF23EF1BF021EF1BF029EF1BF0B0
:10364600000E1D6E010E1C6E2DEF1BF092C01CF0BD
:1036560093C01DF090C01EF091C01FF0000E216EA9
:103666004F0E206E000E01014F6F78EF1BF0200603
:10367600D8A02106000E2024D96E010E2120DA6E74
:1036860018C001F019C002F01AC003F01BC004F004
:103696000A0E056E000E066E000E076E000E086E10
:1036A600DAEC21F00150300FDF6E1C06D8A01D06A3
:1036B6001E06D8A01F0618C001F019C002F01AC0D5
:1036C60003F01BC004F00A0E056E000E066E000E17
:1036D600076E000E086E88EC21F001C018F002C0DB
:1036E60019F003C01AF004C01BF020502110D8B402
:1036F6007FEF1BF081EF1BF0AEEF1BF01850191097
:103706001A101B10D8A48AEF1BF08CEF1BF03AEFAF
:103716001BF01DBE99EF1BF01D5006E11C04D8B02E
:1037260097EF1BF099EF1BF03AEF1BF01FBEA4EFCB
:103736001BF01F5008E11E04D8A0A4EF1BF0A6EF53
:103746001BF0AEEF1BF0000194B3ACEF1BF0AEEF35
:103756001BF03AEF1BF017C00FF0000E2024106E7E
:10376600010E2120116E1EC012F01FC013F004ECD2
:1037760023F01200010E076E0150D8B4C5EF1BF0FE
:10378600C7EF1BF0D7EF1BF00150D96EDA6ADF30B6
:10379600E832E832070B026E070E0264D5EF1BF023
:1037A600D7EF1BF02EEF1CF0000E076E44EF1CF057
:1037B6000150D96EDA6ADF30E832E832070B026E62
:1037C600010E036E022AEAEF1BF0D8900336022E92
:1037D600E8EF1BF00350FF0A046E0150D96EDA6A57
:1037E600DF50070B020DF350C70FD96EDA6ADECF32
:1037F60005F0DDCF06F005C0D9FF06C0DAFF04509C
:10380600DF1644EF1CF00150D96EDA6ADF30E83279
:10381600E832070B026E010E036E022A15EF1CF04A
:10382600D8900336022E13EF1CF00150D96EDA6AD7
:10383600DF50070B020DF350C70FD96EDA6ADECFE1
:1038460004F0DDCF05F004C0D9FF05C0DAFF035050
:10385600DF1244EF1CF00150D96EDA6ADFBC36EF96
:103866001CF039EF1CF0010E3AEF1CF0000E000AB6
:10387600D8B4DBEF1BF0010AD8B406EF1CF0D7EF83
:103886001BF007501200010E086E0150D8B44EEF1F
:103896001CF050EF1CF060EF1CF00150D96EDA6A94
:1038A600DF30E832E832070B036E070E03645EEF83
:1038B6001CF060EF1CF0B7EF1CF0000E086ECCEFAA
:1038C6001CF00150D96EDA6ADF30E832E832070BB5
:1038D600036E010E046E032A73EF1CF0D8900436B3
:1038E600032E71EF1CF00450FF0A056E0150D96ECD
:1038F600DA6ADF50070B020DF350BD0FD96EDA6A94
:10390600DECF06F0DDCF07F006C0D9FF07C0DAFF2D
:103916000550DF16CCEF1CF00150D96EDA6ADF30A5
:10392600E832E832070B036E010E046E032A9EEF9F
:103936001CF0D8900436032E9CEF1CF00150D96E73
:10394600DA6ADF50070B020DF350BD0FD96EDA6A43
:10395600DECF05F0DDCF06F005C0D9FF06C0DAFFE1
:103966000450DF12CCEF1CF00250036E046A0450C0
:10397600000AD8B4C1EF1CF060EF1CF00350000A37
:10398600D8B464EF1CF0010AD8B48FEF1CF060EFD6
:103996001CF008501200000E0A6E08BED7EF1CF08D
:1039A600D5EF1CF0E1EF1CF0081E071E061E056C85
:1039B600000E062207220822010E0A6E04BEE8EF58
:1039C6001CF0E6EF1CF0F2EF1CF0041E031E021EB4
:1039D600016C000E022203220422010E0A1A000EB6
:1039E6000B6E000E0C6E000E0D6E000E0E6E055068
:1039F600061007100810D8B403EF1DF005EF1DF0F0
:103A06003BEF1DF0010E096E0FEF1DF0D890053645
:103A1600063607360836092A08AE14EF1DF016EFEB
:103A26001DF009EF1DF0D8900B360C360D360E360C
:103A36000550015C065002580750035808500458B8
:103A4600D8A028EF1DF02AEF1DF033EF1DF005502A
:103A5600015E0650025A0750035A0850045A0B805A
:103A6600D8900832073206320532092E16EF1DF0BD
:103A76000A50D8B441EF1DF043EF1DF04BEF1DF097
:103A86000E1E0D1E0C1E0B6C000E0C220D220E229D
:103A96000BC001F00CC002F00DC003F00EC004F024
:103AA6001200033404340A6E0A50D8A45DEF1DF0E8
:103AB6005FEF1DF069EF1DF0000E016E000E026E45
:103AC600000E036E000E046ED6EF1DF001C005F069
:103AD60002C006F003C007F004C008F0200E79EF1C
:103AE6001DF0D8900832073206320532E82E74EF00
:103AF6001DF00550096E038EFF0E0116FF0E02160D
:103B0600FF0E0316000E0416960E0A5E0ABE90EF0E
:103B16001DF08EEF1DF0A6EF1DF00A50800A970FDC
:103B2600D8B098EF1DF09AEF1DF09CEF1DF05FEFF7
:103B36001DF0D89004320332023201320A3E9CEF65
:103B46001DF0BEEF1DF01F0E0A64ACEF1DF0AEEFC8
:103B56001DF0B6EF1DF05FEF1DF0D890013602366E
:103B6600033604360A060A50D8A4BCEF1DF0BEEF91
:103B76001DF0B0EF1DF00950D8B4C4EF1DF0C6EF2C
:103B86001DF0CEEF1DF0041E031E021E016C000E7A
:103B960002220322042201C001F002C002F003C087
:103BA60003F004C004F01200000E1A14226E000E78
:103BB6001B14236E800E1C14246E7F0E1D14256E9E
:103BC6002250231024102510D8A4ECEF1DF0EEEFA0
:103BD6001DF0F6EF1DF0000E1A6E000E1B6E000EA5
:103BE6001C6E000E1D6E000E1E14226E000E1F149B
:103BF600236E800E2014246E7F0E2114256E225013
:103C0600231024102510D8A40BEF1EF00DEF1EF084
:103C160015EF1EF0000E1E6E000E1F6E000E206EBB
:103C2600000E216E1DAE1AEF1EF01CEF1EF025EFE2
:103C36001EF01A6C1B1ED8B01B2A1C1ED8B01C2ADC
:103C4600800E1D5621AE2AEF1EF02CEF1EF035EF2A
:103C56001EF01E6C1F1ED8B01F2A201ED8B0202AA8
:103C6600800E2156000E1A1A000E1B1A000E1C1A80
:103C7600800E1D1A000E1E1A000E1F1A000E201AA4
:103C8600800E211A1E501A5C1F501B5820501C58BB
:103C960021501D58D8B052EF1EF054EF1EF057EFCA
:103CA6001EF0D89058EF1EF0D880120084C00BF09A
:103CB60085C00CF086C00DF087C00EF001C00BF079
:103CC60002C00CF003C00DF004C00EF00BC005F0EE
:103CD6000CC006F00DC007F00EC008F0180E79EF04
:103CE6001EF0D8900832073206320532E82E74EFFD
:103CF6001EF00550096E0A6A09500A10D8A486EF0C
:103D06001EF088EF1EF0A8EF1EF0D8900B34056E5B
:103D16000C34066E0D34076E0E34086E0550061010
:103D260007100810D8A49AEF1EF09CEF1EF0A2EF21
:103D36001EF0000E026E020E016ED7EF1EF0000E90
:103D4600026E030E016ED7EF1EF009280A10D8A4E2
:103D5600AFEF1EF0B1EF1EF0D3EF1EF00BC005F073
:103D66000CC006F00DC007F00EC008F0090ED89082
:103D76000536063607360836E82EBAEF1EF0055029
:103D8600061007100810D8B4CBEF1EF0CEEF1EF0C9
:103D9600010ECFEF1EF0000E016E026AD7EF1EF085
:103DA600000E026E040E016E1200000E0A6E04BEB4
:103DB600E1EF1EF0DFEF1EF0EBEF1EF0041E031E18
:103DC600021E016C000E022203220422010E0A6E5C
:103DD60008BEF2EF1EF0F0EF1EF0FAEF1EF0081E1E
:103DE600071E061E056C000E062207220822055035
:103DF600061007100810D8B403EF1FF005EF1FF0E8
:103E060035EF1FF0010E096E0FEF1FF0D890053643
:103E1600063607360836092A08AE14EF1FF016EFE5
:103E26001FF009EF1FF00550015C065002580750BD
:103E3600035808500458D8A023EF1FF025EF1FF0B1
:103E46002DEF1FF00550015E0650025A0750035A27
:103E56000850045AD8900832073206320532092E25
:103E660016EF1FF00A50D8B43BEF1FF03DEF1FF0DE
:103E760045EF1FF0041E031E021E016C000E0222F7
:103E86000322042201C001F002C002F003C003F0C5
:103E960004C004F01200000E0E6E000E0F6E000E2F
:103EA6000D6E000E0C6E0950D8B45CEF1FF05EEF7D
:103EB6001FF066EF1FF00A50D8A464EF1FF066EFFC
:103EC6001FF068EF1FF0BFEF1FF0000E0E6E000E22
:103ED6000D6E09500D24016E000E026E46EC1CF0AC
:103EE6000D2A030E0D647AEF1FF07CEF1FF06CEFC6
:103EF6001FF009500E24016E010E026E46EC1CF0F6
:103F06001A0E0B6EF80EE82EFED70B2EFCD700D03D
:103F1600000E0F6E09500F24040F016E0C0E026E78
:103F260036EC21F00C04D8A49BEF1FF09DEF1FF098
:103F3600ADEF1FF00E50040DF350010F0F240B6E62
:103F46000BC0F6FF100EF76E0A50D96EDA6A08003B
:103F5600F5CFDFFF0F2A030E0F64B4EF1FF0B6EFA5
:103F66001FF08DEF1FF00E2A030E0E64BDEF1FF03B
:103F7600BFEF1FF06AEF1FF01200000E146E115013
:103F8600D8A4C8EF1FF0CAEF1FF0CEEF1FF0000E47
:103F9600136E2FEF20F011C009F037EC23F0112833
:103FA600096E37EC23F0000E146E11501424020F24
:103FB600096E37EC23F0142A030E1464E5EF1FF0A4
:103FC600E7EF1FF0D8EF1FF0340E126EF20EE82E58
:103FD600FED7122EFCD711C00EF0380E0F6E94ECE1
:103FE60023F00D0E126EFC0EE82EFED7122EFCD715
:103FF60011C00EF0380E0F6E94EC23F0640EE82E0E
:10400600FED711C00EF0380E0F6E94EC23F011C0DF
:104016000EF0010E0F6E94EC23F011C00EF0020E9E
:104026000F6E94EC23F011C00EF0060E0F6E94EC9A
:1040360023F011C00EF00C0E0F6E94EC23F011C09D
:104046000EF0280E0F6E94EC23F011C00EF0800EC9
:104056000F6E94EC23F0136E135012000350D8B475
:1040660037EF20F039EF20F041EF20F00350D8A4CD
:104076003FEF20F041EF20F046EF20F0015030EC0A
:1040860026F08DEF20F00350D96EDA6A0A0ED92693
:10409600DE50DE10D8B452EF20F054EF20F06DEF72
:1040A60020F00350D96EDA6A0A0ED9260350E16E63
:1040B600E26A030EE126DE50E65CE650800A086EF0
:1040C600DE50800A0858D8B06BEF20F06DEF20F074
:1040D6008DEF20F00350D96EDA6A030ED926DECFB3
:1040E60004F0DDCF05F00350D96EDA6ADECF06F0B4
:1040F600DDCF07F004500624D96E05500720DA6E8E
:1041060001C0DFFF0350D96EDA6A030ED926DE2A14
:10411600000EDD221200000E0114096E000E0214BC
:104126000A6E800E03140B6E7F0E04140C6E09507B
:104136000A100B100C10D8A4A3EF20F0A5EF20F066
:10414600ADEF20F0000E016E000E026E000E036E43
:10415600000E046E000E0514096E000E06140A6E9B
:10416600800E07140B6E7F0E08140C6E09500A1091
:104176000B100C10D8A4C2EF20F0C4EF20F0CCEF47
:1041860020F0000E056E000E066E000E076E000E85
:10419600086E055001180FE1065002180CE1075091
:1041A600031809E108500418D8B4DCEF20F0DEEF5C
:1041B60020F0E1EF20F0D890E2EF20F0D880120056
:1041C600000E0B6E000E0A6E0750D96EDA6ADFCF4C
:1041D600F6FF100EF76E0800F5502A0AD8A4F6EF7F
:1041E60020F0F8EF20F01EEF21F00750D96EDA6AC2
:1041F600DF2A0850D96EDA6A020EDF26DF5CD96E36
:10420600DA6ADECF0AF0DECF0BF031EF21F00AC01A
:1042160001F00BC002F0000E046E0A0E036EEEEC07
:1042260025F0095001240A6E000E02200B6E07507D
:10423600D96EDA6ADF2A0750D96EDA6ADFCFF6FF5F
:10424600100EF76E0800F550D00F096E090E0964BE
:104256002FEF21F031EF21F00AEF21F00AC007F02D
:104266000BC008F01200010E076E0150D8B43EEFE5
:1042760021F040EF21F058EF21F00250D8B446EF7C
:1042860021F048EF21F058EF21F00150D96EDA6A9B
:10429600DF30E832E832070B036E070E036456EF91
:1042A60021F058EF21F05CEF21F0000E076E86EF4B
:1042B60021F00250D96EDA6A0150E16EE26AE73007
:1042C600E832E832070B036E0150E16EE26AE7500E
:1042D600070B020DF350B30FE16EE26AE6CF04F06E
:1042E600E5CF05F004C0E1FF05C0E2FFE750066E2A
:1042F600032A80EF21F0D8900632032E7EEF21F0BC
:104306000650010BDF6E07501200000E096E000EFC
:104316000A6E000E0B6E000E0C6E0550061007108E
:104326000810D8B499EF21F09BEF21F0D1EF21F0DE
:10433600010E0D6EA5EF21F0D8900536063607362C
:1043460008360D2A08AEAAEF21F0ACEF21F09FEF58
:1043560021F0D89009360A360B360C360550015C2A
:10436600065002580750035808500458D8A0BEEF0C
:1043760021F0C0EF21F0C9EF21F00550015E065093
:10438600025A0750035A0850045A0980D890083236
:104396000732063205320D2EACEF21F009C001F0CE
:1043A6000AC002F00BC003F00CC004F01200055066
:1043B600061007100810D8B4E3EF21F0E5EF21F05E
:1043C60015EF22F0010E096EEFEF21F0D8900536B9
:1043D600063607360836092A08AEF4EF21F0F6EF5E
:1043E60021F0E9EF21F00550015C06500258075014
:1043F600035808500458D8A003EF22F005EF22F026
:104406000DEF22F00550015E0650025A0750035A7E
:104416000850045AD8900832073206320532092E5F
:10442600F6EF21F001C001F002C002F003C003F074
:1044360004C004F01200010E146E1150D8A426EF29
:1044460022F028EF22F045EF22F0000E146E5EEF08
:1044560022F011C00EF012C0F6FF13C0F7FF000ED7
:10446600F86E0F0EF76403D00800F55005D0F6CFAE
:10447600E9FFF7CFEAFFEF500F6E66EC23F0146EFC
:10448600124A132A12C0F6FF13C0F7FF000EF86E89
:104496000F0EF76403D00800F55005D0F6CFE9FFFC
:1044A600F7CFEAFFEF500009D8A45CEF22F05EEFE9
:1044B60022F02CEF22F014501200130687EF22F0A0
:1044C60011C00EF01350800F0F6E94EC23F09AEF8C
:1044D60022F011C00EF01350C00F0F6E94EC23F0B3
:1044E6009AEF22F011C00EF01350940F0F6E94EC59
:1044F60023F09AEF22F011C00EF01350D40F0F6E76
:1045060094EC23F09AEF22F01250010AD8B463EF2C
:1045160022F0030AD8B46CEF22F0010AD8B475EF82
:1045260022F0070AD8B47EEF22F09AEF22F01200AA
:10453600000E096E000E0A6E000E0B6E000E0C6E5B
:1045460001A0A8EF22F0AAEF22F0B2EF22F0055068
:10455600092606500A2207500B2208500C22D89032
:104566000536063607360836D8900432033202324C
:1045760001320150021003100410D8A4C5EF22F036
:10458600C7EF22F0A3EF22F009C001F00AC002F043
:104596000BC003F00CC004F01200000E0E6E000EED
:1045A6000F6E0C50D8A4DAEF22F0DCEF22F0E0EF29
:1045B60022F0000E0D6E02EF23F0000E0E6E0C5070
:1045C6000E24096E37EC23F00E2A030E0E64EEEF6E
:1045D60022F0F0EF22F0E2EF22F0000E0F6E0C5008
:1045E6000F24040F016EBDEC1BF00D6E0F2A030E97
:1045F6000F6400EF23F002EF23F0F2EF22F00D50EC
:10460600120013BE0BEF23F009EF23F00FEF23F098
:10461600000E136E000E126E000E166E000E156E54
:104626001FEF23F0000E026E200E016E0FC003F086
:1046360031EC20F0154A162A1250155C1650800AE5
:10464600146E1350800A1458D8A02CEF23F02EEFC6
:1046560023F015EF23F010C009F011C00AF00FC0C7
:104666000BF0F1EC24F012000950D8B43DEF23F022
:104676003FEF23F04FEF23F00950D96EDA6ADF30AF
:10468600E832E832070B0A6E070E0A644DEF23F094
:104696004FEF23F053EF23F0000E0B6E64EF23F081
:1046A60009C001F0BDEC1BF00B6E09C001F009500A
:1046B600D96EDA6A000EDFBE010E026E46EC1CF001
:1046C6000B6E0B5012000E50D8A46CEF23F06EEF59
:1046D60023F072EF23F0000E106E92EF23F00EC05F
:1046E60001F0010E026E46EC1CF0106E0EC009F0D1
:1046F6000F380F0B0A6E8DEC24F0106E0EC009F009
:1047060013EC26F0106E0EC009F00FC00AF08DEC07
:1047160024F0106E0EC009F013EC26F0106E105047
:1047260012000E50D8A49AEF23F09CEF23F0A0EFCE
:1047360023F0000E106EC0EF23F00EC001F0000E45
:10474600026E46EC1CF0106E0EC009F00F380F0B0F
:104756000A6E8DEC24F0106E0EC009F013EC26F0F4
:10476600106E0EC009F00FC00AF08DEC24F0106E2A
:104776000EC009F013EC26F0106E10501200000166
:10478600F851F911D8A4CAEF23F0CCEF23F0CEEFFD
:1047960023F0EDEF23F0F8C001F0F9C002F0000EAF
:1047A600046E000E036E000E066E0B0E056E87EC91
:1047B60025F0F8C0E0F0F9C0E1F0480E0001E26F24
:1047C600F4C0E3F0F5C0E4F0F6C0E5F0F7C0E6F0BB
:1047D600D1EC24F0120004BEF3EF23F0F5EF23F042
:1047E600FFEF23F001C001F002C002F003C003F0A6
:1047F60004C004F018EF24F001C005F002C006F072
:1048060003C007F004C008F0051E061E071E081E9A
:10481600052A000E06220722082205C001F006C05E
:1048260002F007C003F008C004F012000001F851BE
:10483600D8A420EF24F022EF24F024EF24F041EF57
:1048460024F0F8C001F0026A000E046E000E036E3A
:10485600000E066E0B0E056E87EC25F0F8C0E0F034
:104866000001E16B560EE26FF4C0E3F0F5C0E4F030
:10487600F6C0E5F0F7C0E6F0D1EC24F0120003C074
:104886000AF004C00BF001C008F002C009F05CEFAA
:1048960024F00AC0D9FF0BC0DAFFDF50076E0A4AC0
:1048A6000B2A08C0D9FF09C0DAFF07C0DFFF084A94
:1048B600092A0506D8A00606052806E10628D8A472
:1048C60067EF24F069EF24F04CEF24F01200000E9D
:1048D6001E1A000E1F1A000E201A800E211A1AC068
:1048E60001F01BC002F01CC003F01DC004F01EC086
:1048F60005F01FC006F020C007F021C008F049EC03
:104906000DF001C01AF002C01BF003C01CF004C079
:104916001DF01200000E0D6E000E0D6E09500D24D6
:10492600020F016E0DC00BF00AC00CF00B2A9EEFB1
:1049360024F0D8900C320B2E9CEF24F00C50010B77
:10494600026E46EC1CF00D2A030E0D64ADEF24F04A
:10495600AFEF24F091EF24F01200B00EF66E4B0E7E
:10496600F76E000EF86E00EEB3F010EE2CF00900B4
:10497600F5CFEEFFE550E150FAE101EE00F0710EE1
:10498600EE6AE806FDE100EE80F0330EEE6AE80618
:10499600FDE1000EF86E0001BCEF13F0E30E00011E
:1049A600E76FE0C0E8F0E1C0E9F0000EEC6F000E42
:1049B600EB6F000EF36F000EF26FE80E7C6EE2C036
:1049C6007DF0E70E7E6E11EC25F00001EB51E0253F
:1049D600D96EEC51E121DA6EDF6A1200000E0E6E1E
:1049E600000E0D6E00EF25F00CC001F0026A0BC040
:1049F60003F031EC20F00D4A0E2A0D500924D96E31
:104A06000E500A20DA6EDF500C6E0C50D8A40EEF52
:104A160025F010EF25F0F7EF24F012007DC0DFF04F
:104A26001DEF25F07CC070F0DF0E716E7EC072F057
:104A3600BEEC11F0DFC0F6FF100EF76E0800F55061
:104A46000009D8A429EF25F02BEF25F015EF25F066
:104A5600000E7D6E000E7C6E12001450D8A436EF48
:104A660025F038EF25F03CEF25F0000E186E4CEFE0
:104A760025F014C011F015C012F016C013F060EC4A
:104A860022F0186E14C00EF017C00FF066EC23F07B
:104A9600186E1850120001C005F002C006F0032A75
:104AA6000304046E04C0F6FF100EF76E05C0D9FFAE
:104AB60006C0DAFF054A062A0800F5CFDFFFDF50F9
:104AC600D8A468EF25F06AEF25F052EF25F0120022
:104AD6000150021003100410D8B474EF25F076EFDD
:104AE60025F07EEF25F0000E011A000E021A000EC8
:104AF600031A800E041A01C001F002C002F003C0BE
:104B060003F004C004F0120001C007F002C008F070
:104B160095EF25F007C0D9FF08C0DAFF03C0DFFF15
:104B2600074A082A0506D8A00606052806E106282B
:104B3600D8A4A0EF25F0A2EF25F08DEF25F0120006
:104B46001550D8A4A9EF25F0ABEF25F0ADEF25F071
:104B5600BDEF25F015C011F016C012F017C013F006
:104B660060EC22F015C011F018C012F019C013F055
:104B76001EEC22F012000CBEC3EF25F0C5EF25F0A7
:104B8600CBEF25F00BC00BF00CC00CF0D7EF25F0E7
:104B96000BC00DF00CC00EF00D1E0E1E0D4A0E2A97
:104BA6000DC00BF00EC00CF01200800F810F820FAB
:104BB600830F840F890F8A0F8B0F8C0F8D0F920F27
:104BC600930F940F950F960F030B131B636B737B59
:104BD600020A222A323A01500302F3CF05F0F4CF3B
:104BE60006F001500402F350062602500302F35069
:104BF600062605C001F006C002F012001BC00DF02B
:104C06001CC00EF059EC1AF01D50D96EDA6A0DC0B0
:104C1600DEFF0EC0DEFF0FC0DEFF10C0DEFF12009B
:104C26000928016E010E026E46EC1CF0030EE82EFA
:104C3600FED700000928016E000E026E46EC1CF03D
:104C46001200D90E116EC0EC1FF0D10E0C6ED0EC16
:0C4C560022F0120024EC26F012001200E4
:020000040020DA
:08000000FFFFFFFFFFFFFFFF00
:020000040030CA
:0E000000FF02091EFF8181FF0FC00FE00F40BD
:00000001FF
